:020000040800F2
:100000000000022015460108890100086146010828
:10001000E9010008F1010008F901000800000000F2
:100020000000000000000000000000000DB8000803
:10003000010200080000000005BA000855BA0008D7
:1000400061460108614601086146010861460108F0
:100050006146010861460108CD1800080D19000825
:100060004D1900088D190008614601086146010814
:1000700061460108614601086146010861460108C0
:1000800061460108614601086146010861460108B0
:1000900061460108614601086146010861460108A0
:1000A0006146010861460108614601086146010890
:1000B0006146010861460108614601086146010880
:1000C0006146010861460108614601086146010870
:1000D000614601086146010861460108B90A000845
:1000E0006146010861460108614601086146010850
:1000F0006146010861460108614601086146010840
:1001000061460108B13600086146010861460108F0
:10011000614601086146010861460108614601081F
:10012000614601086146010861460108BD360008C4
:1001300061460108614601086146010861460108FF
:1001400061460108614601086146010861460108EF
:1001500061460108614601086146010861460108DF
:1001600061460108614601086146010861460108CF
:1001700061460108614601086146010861460108BF
:08018000614601086146010817
:1001880080B400AFBD4680BC704700BF80B48BB060
:1001980000AF78607B681B687B627B685B683B624A
:1001A8007B689B68FB617B68DB68BB617B681B695C
:1001B8007B617B685B693B617B689B69FB607B68F3
:1001C800DB69BB60FEE700BF1EF0040F0CBFEFF356
:1001D8000880EFF309808169004A104795010008FB
:1001E80080B400AFFEE700BF80B400AFFEE700BFF9
:1001F80080B400AFFEE700BF80B400AFBD4680BC4E
:10020800704700BF80B500AF4FF46053C4F20203DB
:100218004FF46052C4F20202126842F001021A60FE
:100228004FF46053C4F202034FF000029A604FF497
:100238006053C4F202034FF46052C4F2020212681F
:1002480022F0847222F480321A604FF46053C4F2B0
:10025800020343F21002C2F200425A604FF46053A4
:10026800C4F202034FF46052C4F20202126822F48C
:1002780080221A604FF46053C4F202034FF0000268
:10028800DA6000F0CFF84FF46D43CEF200034FF080
:1002980000629A604FF46D43CEF200034FF46D4252
:1002A800CEF20002D2F8882042F47002C3F8882007
:1002B80080BD00BF80B487B000AF4FF000033B6142
:1002C8004FF000037B614FF00203FB604FF0000327
:1002D800BB604FF002037B604FF46053C4F202032B
:1002E8009B6803F00C033B613B69042B0DD0082B82
:1002F80015D0002B69D140F20003C2F200034FF47D
:100308001052C0F2F4021A6069E040F20003C2F22F
:1003180000034FF49052C0F27A021A605FE04FF483
:100328006053C4F202035B6803F480034FEA9353FB
:10033800BB604FF46053C4F202035B6803F03F03F1
:100348007B60BB68002B14D04FF49053C0F27A0343
:100358007A68B3FBF2F24FF46053C4F202035968AF
:1003680047F6C0730B404FEA931303FB02F37B611C
:1003780013E04FF41053C0F2F4037A68B3FBF2F2BF
:100388004FF46053C4F20203596847F6C0730B4038
:100398004FEA931303FB02F37B614FF46053C4F2FB
:1003A80002035B6803F440334FEA134303F101038C
:1003B8004FEA4303FB607A69FB68B2FBF3F240F251
:1003C8000003C2F200031A6009E040F20003C2F21F
:1003D80000034FF41052C0F2F4021A6000BF4FF449
:1003E8006053C4F202039B6803F0F0034FEA131250
:1003F80040F20403C2F200039B5CDBB23B6140F2B3
:100408000003C2F200031A683B6922FA03F240F2C1
:100418000003C2F200031A6007F11C07BD4680BC46
:10042800704700BF80B483B000AF4FF000037B601B
:100438004FF000033B604FF46053C4F202034FF4E3
:100448006052C4F20202126842F480321A604FF419
:100458006053C4F202031B6803F400333B607B68FB
:1004680003F101037B603B68002B03D17B68B3F584
:10047800A06FECD14FF46053C4F202031B6803F47D
:100488000033002B03D04FF001033B6002E04FF034
:1004980000033B603B68012B40F082804FF46053BF
:1004A800C4F202034FF46052C4F20202126C42F02A
:1004B80080521A644FF4E043C4F200034FF4E04260
:1004C800C4F20002126842F480421A604FF460538A
:1004D800C4F202034FF46052C4F2020292689A60B6
:1004E8004FF46053C4F202034FF46052C4F20202A4
:1004F800926842F400429A604FF46053C4F20203D7
:100508004FF46052C4F20202926842F4A0529A6018
:100518004FF46053C4F2020345F20842C0F240723D
:100528005A604FF46053C4F202034FF46052C4F2AD
:100538000202126842F080721A6000BF4FF46053E2
:10054800C4F202031B6803F00073002BF6D04FF4CB
:100558007053C4F2020340F205621A604FF460530C
:10056800C4F202034FF46052C4F20202926822F00D
:1005780003029A604FF46053C4F202034FF46052CE
:10058800C4F20202926842F002029A6000BF4FF47D
:100598006053C4F202039B6803F00C03082BF6D1E6
:1005A8004FF46053C4F202034FF46052C4F20202E3
:1005B800926822F400029A604FF46053C4F2020376
:1005C8004FF44052C5F20002C3F884204FF4605340
:1005D800C4F202034FF46052C4F20202126842F0FD
:1005E80080621A6000BF4FF46053C4F202031B68B4
:1005F80003F00063002BF6D007F10C07BD4680BC62
:10060800704700BF80B500AF4FF44060C4F20200ED
:100618004FF4805110F0E4FC4FF4FA600CF068FBE2
:100628004FF44060C4F202004FF4805110F0E6FC31
:100638004FF4FA600CF05CFBE6E700BF80B584B0CD
:1006480000AF78604FF03C03FB604FF03C03BB60A9
:100658004FF44060C4F202004FF4005110F0C0FCA7
:100668004FF47A700CF044FBFB6803F10503FB6060
:10067800BB6803F10503BB604FF44060C4F202009D
:100688004FF4005110F0BAFC4FF47A700CF030FBC4
:10069800DEE700BF80B500AF4FF4165000F086F9D2
:1006A8004FF49040C4F2000045F2D441C0F6010175
:1006B80000F0BEFA4FF49040C4F2000045F2E44165
:1006C800C0F6010100F0B4FA00F048FF4FF4904082
:1006D800C4F2000045F2F841C0F6010100F0A8FAA2
:1006E80001F09EFB01F044F801F0B8FF4FF4904090
:1006F800C4F2000045F20C51C0F6010100F098FA6E
:1007080002F07AFA4FF49040C4F2000045F220510A
:10071800C0F6010100F08CFA80BD00BF80B584B03E
:1007280004AF4FF440700EF095FBFFF7B3FF4FF0A6
:10073800010300934FF0000301934FF0000302936D
:100748004FF00003039340F24560C0F6000045F205
:100758002C51C0F601014FF082024FF000030CF05B
:100768002FF94FF0020300934FF0000301934FF06D
:10077800000302934FF00003039340F20D60C0F6AC
:10078800000045F23851C0F601014FF082024FF0E7
:1007980000030CF015F90CF0FFFCFEE780B400AF85
:1007A800BD4680BC704700BF80B500AF0BF018F99C
:1007B800FEE700BF80B400AFBD4680BC704700BFF5
:1007C80080B582B000AF786039600BF009F9FEE7B8
:1007D80080B485B000AFF860B9607A604FF0FF333D
:1007E800184607F11407BD4680BC704780B584B031
:1007F80000AFF860B9607A6013F030FF03464FF03D
:1008080016021A604FF0FF33184607F11007BD466D
:1008180080BD00BF80B485B000AFF860B9607A6071
:100828004FF00003184607F11407BD4680BC704717
:1008380080B586B000AFF860B9607A60BB68002BFD
:1008480002D14FF0000322E04FF000037B6119E072
:1008580000BF4FF49043C4F200031B889BB203F01F
:100868004003002BF5D07B69BA68D3181B784FF486
:100878009040C4F20000194613F016FC7B6903F19E
:1008880001037B617A697B689A42E1DB7B681846E1
:1008980007F11807BD4680BD80B483B000AF78600B
:1008A8004FF00003184607F10C07BD4680BC70479F
:1008B80080B584B000AF786040F2F003C2F2000364
:1008C8001B68002B08D140F2F003C2F2000344F287
:1008D800CC42C2F201021A6040F2F003C2F20003F5
:1008E8001B68FB6040F2F003C2F200031A687B68E1
:1008F800D2186B469A4208D913F0B0FE03464FF05F
:100908000C021A604FF0FF330CE040F2F003C2F221
:1009180000031A687B68D21840F2F003C2F20003A1
:100928001A60FB68184607F11007BD4680BD00BF76
:1009380080B582B000AF7860396038684FF0000148
:100948004FF03C0213F0A8FE3B684FF400525A6087
:100958004FF00003184607F10807BD4680BD00BFE9
:1009680080B483B000AF78604FF00103184607F1F8
:100978000C07BD4680BC704780B582B000AF786078
:10098800396013F06BFE03464FF016021A604FF001
:10099800FF33184607F10807BD4680BD80B400AF95
:1009A8004FF001031846BD4680BC704780B58AB039
:1009B80000AF78604FF480204FF0010110F0CCFFB9
:1009C8004FF002004FF0010110F048FF4FF4406370
:1009D8003B624FF0020387F824304FF0020387F898
:1009E80025304FF0000387F826304FF0010387F8D1
:1009F800273007F120034FF48060C4F20200194643
:100A080010F0B4F94FF48060C4F202004FF00A010C
:100A18004FF0070210F038FB4FF48060C4F2020078
:100A28004FF00B014FF0070210F02EFB7B683B6183
:100A38004FF00003BB824FF00003FB824FF000032E
:100A48003B834FF00003BB834FF00C037B8307F11C
:100A580010034FF49040C4F20000194613F068F9EF
:100A68004FF49040C4F2000040F225514FF00102CB
:100A780013F0C4FC4FF027033B734FF000037B7364
:100A88004FF00003BB734FF00103FB7307F10C0336
:100A980018460EF0F3F94FF49040C4F200004FF0FE
:100AA800010113F081FA07F12807BD4680BD00BF98
:100AB80080B582B000AF4FF49040C4F2000040F21D
:100AC800255113F01FFD0346002B00F0AC804FF4B6
:100AD8004060C4F202004FF4804110F0C3FA4FF4B2
:100AE8009040C4F2000013F0F3FA0346DAB242F67B
:100AF800C863C2F201031A7040F20C13C2F2000379
:100B08001B78312B49D840F20C13C2F200031B7832
:100B18001A4642F6C863C2F20103197842F6CC635A
:100B2800C2F20103995442F6C863C2F201031B786A
:100B3800302B07D14FF44060C4F202004FF400415B
:100B480010F090FA40F20C13C2F200031B781A4618
:100B580042F6CC63C2F201039B5CDBB20D2B0ED1D3
:100B680040F2F403C2F200034FF001021A7040F29F
:100B78000C13C2F200034FF000021A701BE040F29F
:100B88000C13C2F200031B7803F10103DAB240F23E
:100B98000C13C2F200031A700DE040F2F403C2F223
:100BA80000034FF001021A7040F20C13C2F2000366
:100BB8004FF000021A7040F2F403C2F200031B78EF
:100BC800002B30D04FF49040C4F2000042F6CC61C4
:100BD800C2F2010100F02CF84FF49040C4F200007A
:100BE80045F24451C0F6010100F022F800F05CF92A
:100BF80040F2F403C2F200034FF000021A704FF003
:100C080000037B600CE042F6CC63C2F201037A6811
:100C18009B184FF000021A707B6803F101037B6098
:100C28007B68312BEFDD07F10807BD4680BD00BFAB
:100C380080B582B000AF7860396018E000BF4FF42B
:100C48009040C4F200004FF0800113F029FC0346E5
:100C5800002BF4D03B681B78DBB27868194613F098
:100C680023FA3B681B783B6803F101033B603B6850
:100C78001B78DBB2002BE1D107F10807BD4680BD28
:100C880080B58AB000AF786039603B68002B5DD1D1
:100C980040F20413C2F200031B781A4607F1280039
:100CA80082184FF0300102F8141C03F10103DAB284
:100CB80040F20413C2F200031A7047E039684CF698
:100CC800CD43CCF6CC43A3FB01234FEAD302134612
:100CD8004FEA83039B184FEA4303CA1A40F20813EA
:100CE800C2F200031A6040F20813C2F200031B6844
:100CF8003A68D31A3B603A684CF6CD43CCF6CC43FD
:100D0800A3FB02034FEAD3033B6040F20413C2F291
:100D180000031B78194640F20813C2F200031B684F
:100D2800DBB203F13003DAB207F12800431803F805
:100D3800142C40F20413C2F200031B7803F10103E0
:100D4800DAB240F20413C2F200031A703B68002BB7
:100D5800B4D14FF000037B6220E040F20413C2F2EA
:100D680000031B7803F1FF33DAB240F20413C2F236
:100D780000031A7040F20413C2F200031B7807F153
:100D88002801CB1813F8143CDAB207F108017B6A82
:100D9800CB181A707B6A03F101037B6240F20413DB
:100DA800C2F200031B78002BD7D107F108027B6A37
:100DB800D3184FF000021A7007F108034FF490405F
:100DC800C4F200001946FFF733FF40F20413C2F2E1
:100DD80000034FF000021A704FF000033B6211E06D
:100DE80007F114023B6AD3184FF000021A7007F19A
:100DF80008023B6AD3184FF000021A703B6A03F1ED
:100E080001033B623B6A092BEADD07F12807BD466F
:100E180080BD00BF80B582B000AF0346FB7100BF44
:100E280040F2F803C2F200031B6818464FF00001B5
:100E38004FF0FF324FF000030BF0ECF90346002BA4
:100E4800EED0FB799BB24FF49040C4F200001946F3
:100E580013F02AF94FF49040C4F2000040F22771D1
:100E68004FF0010213F0CAFA07F10807BD4680BD2A
:100E780080B582B000AF00BF40F2FC03C2F20003AD
:100E88001A6807F10403104619464FF0FF324FF075
:100E980000030BF0BFF90346002BEDD03B79184651
:100EA80007F10807BD4680BD80B500AF40F2F403E6
:100EB800C2F200031B78002B00F0AA8242F6CC6332
:100EC800C2F201031B78DBB22B2B64D140F228035A
:100ED800C2F200031A6840F22403C2F200031B683E
:100EE800D21840F22803C2F200031A6040F22C0321
:100EF800C2F200031A6840F22403C2F200031B681E
:100F0800D21840F22C03C2F200031A6040F2280300
:100F1800C2F200031A6840F22C03C2F200031B68F5
:100F28001046194600F0EAFA4FF49040C4F2000067
:100F380045F24851C0F60101FFF77AFE40F2280356
:100F4800C2F200031B684FF49040C4F20000194637
:100F5800FFF796FE4FF49040C4F2000045F250515E
:100F6800C0F60101FFF764FE40F22C03C2F2000351
:100F78001B684FF49040C4F200001946FFF780FE4A
:100F88004FF49040C4F2000045F25851C0F60101F8
:100F9800FFF74EFE6BE042F6CC63C2F201031B780A
:100FA800DBB22D2B63D140F22803C2F200031A688A
:100FB80040F22403C2F200031B68D21A40F228034D
:100FC800C2F200031A6040F22C03C2F200031A684E
:100FD80040F22403C2F200031B68D21A40F22C0329
:100FE800C2F200031A6040F22803C2F200031A6832
:100FF80040F22C03C2F200031B681046194600F0A9
:101008007DFA4FF49040C4F2000045F24851C0F612
:101018000101FFF70DFE40F22803C2F200031B682E
:101028004FF49040C4F200001946FFF729FE4FF430
:101038009040C4F2000045F25051C0F60101FFF79C
:10104800F7FD40F22C03C2F200031B684FF49040F6
:10105800C4F200001946FFF713FE4FF49040C4F2A3
:10106800000045F25851C0F60101FFF7E1FD42F6D4
:10107800CC63C2F201031B78DBB2662B52D140F27B
:101088002803C2F200034FF08C021A6040F22C03CE
:10109800C2F200034FF08C021A6040F22803C2F239
:1010A80000031A6840F22C03C2F200031B681046C2
:1010B800194600F023FA4FF49040C4F2000045F2BC
:1010C8004851C0F60101FFF7B3FD40F22803C2F210
:1010D80000031B684FF49040C4F200001946FFF764
:1010E800CFFD4FF49040C4F2000045F25051C0F6D5
:1010F8000101FFF79DFD40F22C03C2F200031B68BB
:101108004FF49040C4F200001946FFF7B9FD4FF4C0
:101118009040C4F2000045F25851C0F60101FFF7B3
:1011280087FD75E142F6CC63C2F201031B78DBB29E
:10113800622B52D140F22803C2F200034FF0690239
:101148001A6040F22C03C2F200034FF069021A60E1
:1011580040F22803C2F200031A6840F22C03C2F2DC
:1011680000031B681046194600F0C8F94FF4904078
:10117800C4F2000045F24851C0F60101FFF758FDDE
:1011880040F22803C2F200031B684FF49040C4F2F7
:1011980000001946FFF774FD4FF49040C4F20000B8
:1011A80045F25051C0F60101FFF742FD40F22C0311
:1011B800C2F200031B684FF49040C4F200001946C5
:1011C800FFF75EFD4FF49040C4F2000045F258511D
:1011D800C0F60101FFF72CFD1AE142F6CC63C2F21A
:1011E80001031B78DBB26C2B52D140F22803C2F208
:1011F80000034FF069021A6040F22C03C2F20003A8
:101208004FF08C021A6040F22803C2F200031A68F9
:1012180040F22C03C2F200031B681046194600F086
:101228006DF94FF49040C4F2000045F25C51C0F6ED
:101238000101FFF7FDFC40F22803C2F200031B681E
:101248004FF49040C4F200001946FFF719FD4FF41F
:101258009040C4F2000045F26451C0F60101FFF766
:10126800E7FC40F22C03C2F200031B684FF49040E5
:10127800C4F200001946FFF703FD4FF49040C4F292
:10128800000045F25851C0F60101FFF7D1FCBFE05C
:1012980042F6CC63C2F201031B78DBB2722B52D147
:1012A80040F22803C2F200034FF08C021A6040F2A9
:1012B8002C03C2F200034FF069021A6040F22803BF
:1012C800C2F200031A6840F22C03C2F200031B6842
:1012D8001046194600F012F94FF49040C4F200008D
:1012E80045F25C51C0F60101FFF7A2FC40F2280369
:1012F800C2F200031B684FF49040C4F20000194684
:10130800FFF7BEFC4FF49040C4F2000045F2645170
:10131800C0F60101FFF78CFC40F22C03C2F2000377
:101328001B684FF49040C4F200001946FFF7A8FC70
:101338004FF49040C4F2000045F25851C0F6010144
:10134800FFF776FC64E042F6CC63C2F201031B7837
:10135800DBB2732B52D140F22803C2F200034FF0E4
:1013680078021A6040F22C03C2F200034FF07802B0
:101378001A6040F22803C2F200031A6840F22C03F4
:10138800C2F200031B681046194600F0B7F84FF484
:101398009040C4F2000045F25C51C0F60101FFF72D
:1013A80047FC40F22803C2F200031B684FF4904048
:1013B800C4F200001946FFF763FC4FF49040C4F2F2
:1013C800000045F26451C0F60101FFF731FC40F21C
:1013D8002C03C2F200031B684FF49040C4F20000D3
:1013E8001946FFF74DFC4FF49040C4F2000045F257
:1013F8005851C0F60101FFF71BFC09E042F6CC6327
:10140800C2F201031B78DBB2652B01D100F0E6FBC9
:1014180080BD00BF80B500AF4FF44060C4F2020049
:101428004FF400714FF001020FF0F6FD00F012F8D2
:1014380080BD00BF80B500AF4FF44060C4F2020029
:101448004FF400714FF000020FF0E6FD00F01AF8BB
:1014580080BD00BF80B500AF4FF44060C4F2020009
:101468004FF480614FF001020FF0D6FD4FF4406059
:10147800C4F202004FF400614FF001020FF0CCFDFE
:1014880080BD00BF80B500AF4FF44060C4F20200D9
:101498004FF480614FF000020FF0BEFD4FF4406042
:1014A800C4F202004FF400614FF000020FF0B4FDE7
:1014B80000F002F880BD00BF80B500AF40F22803FD
:1014C800C2F200034FF078021A6040F22C03C2F215
:1014D80000034FF078021A604FF40060C4F2000075
:1014E8004FF0780111F066FA4FF40060C4F2000082
:1014F8004FF0780111F07AFA80BD00BF80B582B054
:1015080000AF786039604FF40060C4F20000796879
:1015180011F050FA4FF40060C4F20000396811F07D
:1015280065FA07F10807BD4680BD00BF80B400AF6B
:10153800BD4680BC704700BF80B400AFBD4680BCCC
:10154800704700BF80B400AFBD4680BC704700BF85
:1015580080B400AFBD4680BC704700BF80B500AF07
:1015680000F004F800F044F880BD00BF80B582B0F8
:1015780000AF4FF008004FF0010110F06FF94FF481
:1015880060633B604FF001033B714FF00003BB7198
:101598004FF003037B714FF00003FB713B464FF4A0
:1015A8004060C4F2020019460FF0E0FB4FF44060BF
:1015B800C4F202004FF400714FF000020FF02CFD4E
:1015C8004FF44060C4F202004FF480614FF0000213
:1015D8000FF022FD4FF44060C4F202004FF40061A6
:1015E8004FF000020FF018FD07F10807BD4680BD57
:1015F80080B58AB000AF4FF004004FF0010110F041
:10160800ABF94FF008004FF0010110F027F94FF443
:1016180030433B624FF0020387F824304FF0000359
:1016280087F826304FF0030387F825304FF0010381
:1016380087F8273007F120034FF44060C4F2020016
:1016480019460FF093FB4FF44060C4F202004FF0CC
:101658000C014FF002020FF017FD4FF44060C4F286
:1016680002004FF00D014FF002020FF00DFD4FF494
:101678004060C4F202004FF00E014FF002020FF07A
:1016880003FD4FF44060C4F202004FF00F014FF029
:1016980002020FF0F9FC4FF0FF03BB614FF0F903B2
:1016A800BB824FF00003BB834FF00003FB8207F1BE
:1016B80014034FF40060C4F20000194610F01AFD3C
:1016C8004FF060033B804FF001037B804FF0000335
:1016D800BB814FF07803BB603B464FF40060C4F217
:1016E8000000194610F0BCFE4FF40060C4F2000080
:1016F8004FF0080111F000FA3B464FF40060C4F2C5
:101708000000194610F02AFF4FF40060C4F20000F0
:101718004FF0080111F00CFA3B464FF40060C4F298
:101728000000194610F0AEFF4FF40060C4F200004C
:101738004FF0080111F01CFA3B464FF40060C4F268
:101748000000194611F02EF84FF40060C4F20000B2
:101758004FF0080111F028FA4FF40060C4F20000BD
:101768004FF0010110F05CFE07F12807BD4680BD6F
:1017780080B582B000AF4FF001004FF0010110F0CA
:101788006DF83B4618460FF093FB4FF00F033B6094
:101798004FF000033B714FF003037B714FF00103DF
:1017A800FB713B464FF00000C4F2020019460FF0EF
:1017B800DDFA42F61070C2F2010000F01FF942F69D
:1017C8000070C2F2010000F019F942F61073C2F27B
:1017D80001034FF001029A8042F61073C2F201032E
:1017E8004FF00402DA8042F60073C2F201034FF0B0
:1017F80002029A8042F60073C2F201034FF0080217
:10180800DA804FF000004FF006014FF0010200F0BF
:101818001DF84FF001004FF007014FF0020200F0F1
:1018280015F84FF002004FF008014FF0040200F0E5
:101838000DF84FF003004FF009014FF0080200F0D7
:1018480005F807F10807BD4680BD00BF80B586B022
:1018580000AF0B463A600246FA71BB714FF4804004
:101868004FF0010110F0A2F8FB794FF00000194683
:101878000DF05AFA3B683B614FF000033B754FF09F
:1018880010037B754FF00103BB7507F11003184671
:101898000EF0C6FD38680EF0E9FEBB793B734FF0D9
:1018A80003037B734FF00303BB734FF00103FB7318
:1018B80007F10C0318460DF0E1FA07F11807BD46C9
:1018C80080BD00BF80B500AF4FF001000EF0A2FE52
:1018D8000346002B15D042F61073C2F201031B68B1
:1018E80003F1010242F61073C2F201031A6042F6D4
:1018F8001070C2F2010000F097F84FF001000EF0EE
:10190800B5FE80BD80B500AF4FF002000EF082FE3C
:101918000346002B15D042F60073C2F201031B6880
:1019280003F1010242F60073C2F201031A6042F6A3
:101938000070C2F2010000F077F84FF002000EF0DC
:1019480095FE80BD80B500AF4FF004000EF062FE3A
:101958000346002B15D042F61073C2F201031B6830
:1019680003F1010242F61073C2F201031A6042F653
:101978001070C2F2010000F057F84FF004000EF0AA
:1019880075FE80BD80B500AF4FF008000EF042FE36
:101998000346002B15D042F60073C2F201031B6800
:1019A80003F1010242F60073C2F201031A6042F623
:1019B8000070C2F2010000F037F84FF008000EF096
:1019C80055FE80BD80B485B000AF78607B68BB6091
:1019D8004FF00003BB7307F11407BD4680BC704786
:1019E80080B485B000AF78607B68BB604FF00103BE
:1019F800BB7307F11407BD4680BC704780B483B041
:101A080000AF78607B684FF000021A607B684FF087
:101A180000021A727B684FF000025A7207F10C0735
:101A2800BD4680BC704700BF90B583B000AF7860FA
:101A38007B681B7A4FEA8303DBB203F00F03DCB247
:101A48007B689B884FF00000C4F2020019460FF033
:101A58006FFA03464FEA4303DBB222461343DCB274
:101A68007B68DB884FF00000C4F2020019460FF0D3
:101A78005FFA0346DBB222461343DBB2DAB27B6875
:101A88001A727B681B7A03F00F0240F23003C2F22D
:101A980000039A5C7B685A7207F10C07BD4690BD3B
:101AA80080B485B000AF786039607B685B7A002BC2
:101AB80007D13B685B7A002B03D14FF00103FB731E
:101AC80032E07B685B7A022B07D13B685B7A012B9B
:101AD80003D14FF00203FB7326E07B685B7A012B8E
:101AE80007D13B685B7A022B03D14FF00303FB73EA
:101AF8001AE07B685B7A012B07D13B685B7A012B84
:101B080003D14FF00403FB730EE07B685B7A022B72
:101B180007D13B685B7A022B03D14FF00503FB73B7
:101B280002E04FF00803FB73FB7B184607F114072C
:101B3800BD4680BC704700BF80B582B000AF42F69A
:101B48001070C2F2010042F60071C2F20101FFF703
:101B5800A7FF0346FB71FB79184607F10807BD4646
:101B680080BD00BF80B582B000AF4FF00500FFF721
:101B780029FF42F61073C2F201031B687B6042F62C
:101B88001070C2F20100FFF739FF4FF00500FFF7B0
:101B980027FF7B68184607F10807BD4680BD00BFD0
:101BA80080B582B000AF4FF00A00FFF70BFF42F696
:101BB8000073C2F201031B687B6042F60070C2F238
:101BC8000100FFF71BFF4FF00A00FFF709FF7B68D2
:101BD800184607F10807BD4680BD00BF80B500AFB5
:101BE8004FF00F00FFF7EEFE4FF49040C4F20000F4
:101BF80045F26C51C0F60101FFF71AF842F610736E
:101C0800C2F201035B7A4FF49040C4F20000194617
:101C1800FFF736F84FF49040C4F2000045F27851CF
:101C2800C0F60101FFF704F842F60073C2F201039F
:101C38005B7A4FF49040C4F200001946FFF720F891
:101C480042F61070C2F20100FFF7EEFE42F6007095
:101C5800C2F20100FFF7E8FE4FF49040C4F2000022
:101C680045F28451C0F60101FEF7E2FF42F6107317
:101C7800C2F201035B7A4FF49040C4F200001946A7
:101C8800FEF7FEFF4FF49040C4F2000045F2905179
:101C9800C0F60101FEF7CCFF42F60073C2F2010361
:101CA8005B7A4FF49040C4F200001946FEF7E8FF53
:101CB8004FF49040C4F2000045F29C51C0F6010177
:101CC800FEF7B6FF42F61073C2F201031B684FF429
:101CD8009040C4F200001946FEF7D2FF4FF490403E
:101CE800C4F2000045F2A451C0F60101FEF7A0FFBE
:101CF80042F60073C2F201031B684FF49040C4F22D
:101D080000001946FEF7BCFF4FF49040C4F20000F3
:101D180045F2AC51C0F60101FEF78AFF42F6107396
:101D2800C2F201034FF000021A6042F60073C2F2D9
:101D380001034FF000021A604FF00F00FFF750FE4A
:101D480080BD00BF80B582B000AF4FF008004FF0F3
:101D580001010FF083FD4FF0D8033B604FF0000303
:101D68003B714FF002037B714FF00203FB713B465E
:101D78004FF44060C4F2020019460EF0F7FF07F175
:101D88000807BD4680BD00BF80B582B000AF4FF0E8
:101D980010004FF001010FF061FD4FF00F033B60A1
:101DA8004FF001033B714FF00003BB714FF0030389
:101DB8007B714FF00003FB713B464FF48050C4F237
:101DC800020019460EF0D2FF4FF48050C4F2020010
:101DD8004FF001014FF000020FF01EF94FF4805050
:101DE800C4F202004FF002014FF000020FF014F9A4
:101DF8004FF48050C4F202004FF004014FF000028B
:101E08000FF00AF94FF48050C4F202004FF00801B5
:101E18004FF000020FF000F907F10807BD4680BD3A
:101E280090B583B002AFFFF7AFFFFFF78BFF42F229
:101E38007503C0F60003009345F2B050C0F60100E8
:101E48004FF032014FF001024FF003030CF044FA57
:101E5800024642F61C73C2F201031A6042F61C7372
:101E6800C2F201031C680BF0B9FA03464FF00002F6
:101E7800009220464FF000011A464FF000030CF084
:101E880063FA07F10407BD4690BD00BF80B582B074
:101E980000AF78607B68002B1BD14FF48050C4F2F0
:101EA80002004FF001014FF000020FF0B5F84FF4B7
:101EB8008050C4F202004FF002014FF000020FF010
:101EC800ABF840F21013C2F200034FF000021A7090
:101ED80050E07B68012B25D100F0DCF90346012B8B
:101EE80020D000F0D7F90346032B1BD04FF48050C5
:101EF800C4F202004FF001014FF001020FF08CF81C
:101F08004FF48050C4F202004FF002014FF000027B
:101F18000FF082F840F21013C2F200034FF00102F2
:101F28001A7027E07B68022B24D100F0B3F903462E
:101F3800022B1FD000F0AEF90346032B1AD04FF442
:101F48008050C4F202004FF001014FF000020FF080
:101F580063F84FF48050C4F202004FF002014FF0D2
:101F680001020FF059F840F21013C2F200034FF0CB
:101F780002021A7007F10807BD4680BD80B582B01D
:101F880000AF78607B68002B1BD14FF48050C4F2FF
:101F980002004FF004014FF000020FF03DF84FF43B
:101FA8008050C4F202004FF008014FF000020FF019
:101FB80033F840F21113C2F200034FF000021A7016
:101FC80050E07B68012B25D100F09CF90346012BDA
:101FD80020D000F097F90346032B1BD04FF4805014
:101FE800C4F202004FF004014FF001020FF014F8A0
:101FF8004FF48050C4F202004FF008014FF0000285
:102008000FF00AF840F21113C2F200034FF0010278
:102018001A7027E07B68022B24D100F073F903467D
:10202800022B1FD000F06EF90346032B1AD04FF491
:102038008050C4F202004FF004014FF000020EF08D
:10204800EBFF4FF48050C4F202004FF008014FF04C
:1020580001020EF0E1FF40F21113C2F200034FF04B
:1020680002021A7007F10807BD4680BD80B500AFAF
:1020780040F21013C2F200031B78012B04D0022B8C
:102088003DD0002B77D075E040F21413C2F2000364
:102098001B6803F1010240F21413C2F200031A6034
:1020A80000F0F8F80346012B04D000F0F3F80346DB
:1020B800032B0AD14FF00000FFF7E8FE40F210139F
:1020C800C2F200034FF000021A7040F21413C2F279
:1020D80000031B68132B50DD4FF00000FFF7D6FEFE
:1020E80040F21013C2F200034FF000021A7040F2DF
:1020F8001413C2F200034FF000021A603DE040F2F0
:102108001413C2F200031B6803F1010240F2141316
:10211800C2F200031A6000F0BDF80346022B04D097
:1021280000F0B8F80346032B0AD14FF00000FFF780
:10213800ADFE40F21013C2F200034FF000021A7015
:1021480040F21413C2F200031B68132B17DD4FF083
:102158000000FFF79BFE40F21013C2F200034FF09D
:1021680000021A7040F21413C2F200034FF000028A
:102178001A6004E004E000BF02E000BF00E000BF16
:1021880040F21113C2F200031B78012B04D0022B7A
:102198003DD0002B78D075E040F21813C2F200034E
:1021A8001B6803F1010240F21813C2F200031A601F
:1021B80000F0A8F80346012B04D000F0A3F803466A
:1021C800032B0AD14FF00000FFF7D8FE40F211139D
:1021D800C2F200034FF000021A7040F21813C2F264
:1021E80000031B68132B51DD4FF00000FFF7C6FEFC
:1021F80040F21113C2F200034FF000021A7040F2CD
:102208001813C2F200034FF000021A603EE040F2D9
:102218001813C2F200031B6803F1010240F21813FD
:10222800C2F200031A6000F06DF80346022B04D0D6
:1022380000F068F80346032B0AD14FF00000FFF7BF
:102248009DFE40F21113C2F200034FF000021A7013
:1022580040F21813C2F200031B68132B18DD4FF06D
:102268000000FFF78BFE40F21113C2F200034FF09B
:1022780000021A7040F21813C2F200034FF0000275
:102288001A6005E000BF04E000BF02E000BF00E004
:1022980000BF80BD80B500AF4FF44060C4F20200BB
:1022A8004FF080010EF044FE0346002B0CBF0023C4
:1022B8000123DBB21A4640F22013C2F200031A606F
:1022C8004FF44060C4F202004FF040010EF030FEBF
:1022D8000346002B02D04FF0020201E04FF000024B
:1022E80040F22013C2F200031B681A4340F2201385
:1022F800C2F200031A6040F22013C2F200031B6806
:10230800184680BD80B500AF4FF44060C4F20200AB
:102318004FF008010EF00CFE0346002B0CBF002303
:102328000123DBB21A4640F21C13C2F200031A6002
:102338004FF44060C4F202004FF010010EF0F8FDB7
:102348000346002B02D04FF0020201E04FF00002DA
:1023580040F21C13C2F200031B681A4340F21C131C
:10236800C2F200031A6040F21C13C2F200031B6899
:10237800184680BD80B582B000AF42F62073C2F225
:1023880001031B8807EE103AF8EE477AC7ED017A89
:1023980097ED017ADFED357A87EE277ADFED347A2B
:1023A80067EE277A9FED337A77EE677AC7ED017A81
:1023B80097ED017ADFED307A67EE277AC7ED017A7B
:1023C8004FF49040C4F2000045F2D451C0F6010128
:1023D800FEF72EFC42F62073C2F201031B884FF46D
:1023E8009040C4F200001946FEF74AFC4FF49040B2
:1023F800C4F2000045F2DC51C0F60101FEF718FCFA
:10240800D7ED017AFCEEE77A17EE903A4FF4904058
:10241800C4F200001946FEF733FC4FF49040C4F2B2
:10242800000045F2E451C0F60101FEF701FC97ED0A
:10243800017ADFED107A67EE277AFCEEE77A17EE7D
:10244800903A4FF49040C4F200001946FEF718FC89
:102458004FF49040C4F2000045F2EC51C0F601017F
:10246800FEF7E6FB07F10807BD4680BD0000804582
:102478000000C0400000A04000007A4480B582B04F
:1024880000AF42F62073C2F201035B8807EE103AF0
:10249800F8EE477AC7ED017A42F62073C2F20103DB
:1024A8009B8807EE103AF8EE477AC7ED007A97ED69
:1024B800017ADFED637A27EE277ADFED627AC7EEDD
:1024C800277AC7ED017A97ED007ADFED5D7A27EE7E
:1024D800277ADFED5C7AC7EE277AC7ED007A4FF4EA
:1024E8009040C4F2000045F2F051C0F60101FEF739
:1024F8009FFB42F62073C2F201035B884FF49040C1
:10250800C4F200001946FEF7BBFB4FF49040C4F23A
:10251800000045F2DC51C0F60101FEF789FBD7ED5A
:10252800017AFCEEE77A17EE903A4FF49040C4F245
:1025380000001946FEF7A4FB4FF49040C4F20000D7
:1025480045F2E451C0F60101FEF772FB97ED017AFE
:10255800DFED3D7A67EE277AC7ED017AD7ED017A8C
:10256800FCEEE77A17EE903A4FF49040C4F2000080
:102578001946FEF785FB4FF49040C4F2000045F27F
:10258800EC51C0F60101FEF753FB4FF49040C4F242
:10259800000045F2F851C0F60101FEF749FB42F68A
:1025A8002073C2F201039B884FF49040C4F20000EC
:1025B8001946FEF765FB4FF49040C4F2000045F25F
:1025C800DC51C0F60101FEF733FBD7ED007AFCEED3
:1025D800E77A17EE903A4FF49040C4F2000019469B
:1025E800FEF74EFB4FF49040C4F2000045F2006144
:1025F800C0F60101FEF71CFB97ED007ADFED127AB9
:1026080067EE277AC7ED007AD7ED007AFCEEE77A15
:1026180017EE903A4FF49040C4F200001946FEF7C6
:102628002FFB4FF49040C4F2000045F2EC51C0F685
:102638000101FEF7FDFA07F10807BD4680BD00BF9E
:1026480000004040000080400000204080B500AFFE
:10265800FFF790FEFFF712FF80BD00BF80B500AF07
:1026680000F09CF800F018F84FF40050C4F2010094
:102678004FF001010DF024F84FF40050C4F20100AE
:102688004FF001010DF000F84FF40050C4F20100C2
:102698000CF03AFF80BD00BF80B58CB000AF4FF0A2
:1026A80004004FF001010FF0D9F84FF480704FF09B
:1026B80001010FF07BF94FF03203BB624FF00303C7
:1026C80087F82C304FF0000387F82F3007F12803E4
:1026D8004FF40060C4F2020019460EF047FB4FF0B9
:1026E80000033B614FF001033B754FF001037B751D
:1026F8004FF00003BB614FF00003FB614FF0000394
:102708003B624FF0030387F8243007F110034FF4BE
:102718000050C4F2010019460CF098FC4FF0000379
:102728003B604FF480337B604FF00003BB604FF099
:102738000003FB603B4618460CF00AFD4FF40050BE
:10274800C4F201004FF00B014FF001024FF00103FA
:102758000CF0FCFD4FF40050C4F201004FF00E01E4
:102768004FF002024FF001030CF0F0FD4FF400505F
:10277800C4F201004FF00F014FF003024FF00103C4
:102788000CF0E4FD4FF40050C4F201004FF00101D9
:102798000CF026FD07F13007BD4680BD80B590B02E
:1027A80000AF4FF480004FF001010FF057F84FF0E1
:1027B80000037B6042F24C03C4F20103BB6042F6A3
:1027C8002073C2F20103FB604FF000033B614FF03E
:1027D80003037B614FF00003BB614FF48063FB612F
:1027E8004FF400633B624FF400537B624FF48073F5
:1027F800BB624FF40033FB624FF000033B634FF0C2
:1028080001037B634FF00003BB634FF00003FB63DE
:1028180007F1040346F21040C4F2020019460DF015
:10282800F3FA46F21040C4F202004FF001010DF035
:1028380089FB07F14007BD4680BD00BF80B500AFEA
:1028480000F00AFF43F2B450C2F2010045F20861F9
:10285800C0F601014FF0000206F0A4FD03461A4637
:1028680043F2B053C2F201031A7043F2B053C2F2FA
:1028780001031B78002B0BD043F2B053C2F20103C3
:102888001B7845F20C60C0F60100194611F00CFFE8
:1028980043F25810C2F2010045F22061C0F601016E
:1028A8004FF00B0206F0CCFD03461A4643F2B05334
:1028B800C2F201031A7043F28430C2F2010045F2F9
:1028C8002C61C0F601014FF0130206F0B9FD034672
:1028D8001A4643F2B053C2F201031A7043F2B053DE
:1028E800C2F201031B78002B0BD043F2B053C2F2A3
:1028F80001031B7845F23460C0F60100194611F057
:10290800D3FE43F2B053C2F201031B78002B05D16A
:1029180045F24C60C0F6010011F0C6FE80BD00BF54
:1029280080B500AF43F25810C2F2010007F0CCFAAC
:1029380003461A4643F2B053C2F201031A7043F237
:10294800B053C2F201031B78002B0BD043F2B053F3
:10295800C2F201031B7845F26C60C0F6010019460B
:1029680011F0A2FE4FF0000045F20861C0F6010127
:102978004FF0000206F016FD03461A4643F2B05324
:10298800C2F201031A7043F2B053C2F201031B787A
:10299800002B0BD043F2B053C2F201031B7845F26F
:1029A8008460C0F60100194611F07EFE43F2B05370
:1029B800C2F201031B78002B05D145F29860C0F6DE
:1029C800010011F071FE80BD80B582B000AF786063
:1029D800396007F1040343F28430C2F2010019465A
:1029E8004FF0040243F28033C2F2010307F014F8F7
:1029F80003461A4643F2B053C2F201031A703B462B
:102A080043F28430C2F2010019464FF0040243F247
:102A18008033C2F2010306F0FFFF03461A4643F271
:102A2800B053C2F201031A7043F28430C2F20100BB
:102A380007F086F903461A4643F2B053C2F201037F
:102A48001A7007F10807BD4680BD00BF80B582B087
:102A580000AF4FF078037B6007F1040343F2843042
:102A6800C2F2010019464FF0040243F25413C2F2B5
:102A7800010306F073FE03461A4643F2B053C2F24E
:102A880001031A707B68184607F10807BD4680BD28
:102A980080B586B002AFF860B9607A603B607B6849
:102AA80000933B68019343F25810C2F2010045F2CB
:102AB800A861C0F60101FA68BB6808F0BDFA0346D0
:102AC800DAB243F2B053C2F201031A7043F258105B
:102AD800C2F2010007F034F903461A4643F2B05334
:102AE800C2F201031A7007F11007BD4680BD00BF8E
:102AF80090B583B002AF42F65D33C0F60003009391
:102B080045F2B860C0F601004FF47A714FF0010247
:102B18004FF001030BF0E0FB024643F27C33C2F2B4
:102B280001031A6043F27C33C2F201031C680AF005
:102B380055FC03464FF00002009220464FF000017A
:102B48001A464FF000030BF0FFFB07F10407BD46E0
:102B580090BD00BF80B500AF40F22803C2F2000369
:102B68001A6843F2A853C2F201031A6040F22C0318
:102B7800C2F200031A6843F2A853C2F201035A6072
:102B880042F61073C2F201031B681A4643F24C1353
:102B9800C2F201031A6042F60073C2F201031B6815
:102BA8001A4643F24C13C2F201035A6043F258101A
:102BB800C2F2010043F24C11C2F201014FF00802C7
:102BC80043F28033C2F2010306F026FF03461A4699
:102BD80043F2B053C2F201031A7043F25810C2F222
:102BE800010007F0ADF803461A4643F2B053C2F2AB
:102BF80001031A7080BD00BF98B500AF45F2CC60E4
:102C0800C0F6010011F050FD00F026FD43F2B4506B
:102C1800C2F2010045F20861C0F601014FF000025E
:102C280006F0C0FB03461A4643F2B053C2F2010352
:102C38001A7043F2B053C2F201031B78002B0BD079
:102C480043F2B053C2F201031B7845F20C60C0F6A0
:102C58000100194611F028FD43F25810C2F2010094
:102C680045F2E061C0F601014FF00B0206F0E8FB07
:102C780003461A4643F2B053C2F201031A7042F6F1
:102C88002870C2F2010045F2EC61C0F601014FF074
:102C98000B0206F0D5FB03461A4643F2B053C2F2C4
:102CA80001031A7043F2B053C2F201031B78002BE0
:102CB8000BD043F2B053C2F201031B7845F2F46023
:102CC800C0F60100194611F0EFFC43F25810C2F2A9
:102CD800010040F25001C2F200014FF00C0243F231
:102CE8008033C2F2010306F097FE03461A4643F208
:102CF800B053C2F201031A7043F25810C2F2010035
:102D080045F20871C0F6010108F096F90346DAB2F7
:102D180043F2B053C2F201031A7043F2A853C2F24D
:102D280001031A6843F2A853C2F201035B681C4608
:102D380003F1FF3143F2A853C2F20103596043F291
:102D48005810C2F2010045F21071C0F60101234685
:102D580008F072F90346DAB243F2B053C2F2010343
:102D68001A7045F22070C0F6010043F25811C2F201
:102D7800010108F025F90346DAB243F2B053C2F272
:102D880001031A7043F2A853C2F201034FF0410243
:102D98001A6043F2A853C2F201034FF001025A60CD
:102DA80042F62870C2F2010043F2A851C2F20101B2
:102DB8004FF0080243F28033C2F2010306F02CFE02
:102DC80003461A4643F2B053C2F201031A7043F2A3
:102DD800B053C2F201031B78002B0BD043F2B0535F
:102DE800C2F201031B7845F23070C0F601001946A3
:102DF80011F05AFC43F25810C2F2010007F064F8CF
:102E080003461A4643F2B053C2F201031A7042F65F
:102E18002870C2F2010007F057F803461A4643F239
:102E2800B053C2F201031A7043F2B053C2F2010365
:102E38001B78002B0BD043F2B053C2F201031B786E
:102E480045F26C60C0F60100194611F02DFC4FF0F8
:102E5800000045F20861C0F601014FF0000206F0DB
:102E6800A1FA03461A4643F2B053C2F201031A709C
:102E780043F2B053C2F201031B78002B0BD043F28C
:102E8800B053C2F201031B7845F28460C0F601001A
:102E9800194611F009FC43F2B053C2F201031B7842
:102EA800002B05D145F24470C0F6010011F0FCFB7F
:102EB800184698BD80B586B000AF45F25C70C0F684
:102EC800010011F0F1FB43F2B450C2F2010045F2E7
:102ED8000861C0F601014FF0000206F063FA0346EC
:102EE8001A4643F2B053C2F201031A7043F2B053C8
:102EF800C2F201031B78002B0BD043F2B053C2F28D
:102F080001031B7845F20C60C0F60100194611F068
:102F1800CBFB43F25810C2F2010045F2E061C0F663
:102F280001014FF0010206F08BFA03461A4643F2FC
:102F3800B053C2F201031A7042F62870C2F20100BF
:102F480045F2EC61C0F601014FF0010206F078FA93
:102F580003461A4643F2B053C2F201031A7043F211
:102F6800B053C2F201031B78002B0BD043F2B053CD
:102F7800C2F201031B7845F2F460C0F6010019465D
:102F880011F092FB43F2A853C2F201034FF0010281
:102F98001A6043F2A853C2F201034FF000025A60CC
:102FA8003B4618464FF0140143F25812C2F2010290
:102FB80007F052FF3B78002B19D03B464FF4904066
:102FC800C4F200001946FDF733FE4FF000037B61A1
:102FD80009E03A467B69D3184FF000021A707B6902
:102FE80003F101037B617B69132BF2DDD8E700BF96
:102FF80042F62870C2F2010043F2A851C2F2010160
:103008004FF0080243F25413C2F2010306F0A6FB84
:1030180003461A4643F2B053C2F201031A7043F250
:10302800A853C2F201031A6843F2A853C2F201037B
:103038005B6845F26C70C0F6010011461A4611F043
:1030480033FB43F25810C2F2010006F03DFF03467D
:103058001A4643F2B053C2F201031A7042F62870BE
:10306800C2F2010006F030FF03461A4643F2B0539D
:10307800C2F201031A7043F2B053C2F201031B7883
:10308800002B0BD043F2B053C2F201031B7845F278
:103098007C70C0F60100194611F006FB4FF00000E5
:1030A80045F20861C0F601014FF0000206F07AF916
:1030B80003461A4643F2B053C2F201031A7043F2B0
:1030C800B053C2F201031B78002B0BD043F2B0536C
:1030D800C2F201031B7845F29070C0F60100194650
:1030E80011F0E2FA184607F11807BD4680BD00BF87
:1030F80080B582B000AF4FF00003FB714FF00000C5
:103108004FF4806102F00EFF0346FB71FB79002B40
:1031180007D0FB7945F2A470C0F60100194611F0FA
:10312800C3FAFB79002B35D145F2BC70C0F601001B
:1031380011F0BAFA43F6E450C2F201004FF0000170
:103148004FF400724FF0020302F06EF80346FB7171
:10315800FB79002B05D045F2EC70C0F6010011F0A8
:10316800A3FA02F02DFA0346FB71FB79002B05D078
:1031780045F60800C0F6010011F096FA00BF00F00D
:10318800BBFE0346002BFAD145F62800C0F6010025
:1031980011F08AFAFB79002B0ED143F6E450C2F203
:1031A80001004FF4806100F08DF903461A4640F2A1
:1031B8002413C2F200031A7040F22413C2F200036F
:1031C8001B78DBB2012B05D145F63C00C0F60100A7
:1031D80011F06AFA07F10807BD4680BD80B582B0D4
:1031E80000AF44F2E410C2F201004FF4007143F260
:1031F8000F2200F017F944F2E410C2F201004FF078
:1032080000014FF4007202F04BFA0346FB71FB79A0
:10321800002B07D0FB7945F65400C0F6010019468B
:1032280011F042FA02F0BEFD0346FB71FB79002B58
:1032380007D0FB7945F67000C0F60100194611F079
:1032480033FA00BF00F058FE0346002BFAD1FB7991
:10325800002B2BD143F6E430C2F201004FF00001FD
:103268004FF4007201F002FF0346FB71FB79002B5B
:1032780007D0FB7945F68C00C0F60100194611F01D
:1032880013FA02F09DF90346FB71FB79002B07D076
:10329800FB7945F6A800C0F60100194611F004FABA
:1032A80000BF00F029FE0346002BFAD1FB79002B62
:1032B80012D144F2E410C2F2010043F6E431C2F242
:1032C80001014FF4007200F0D1F803461A4640F2AB
:1032D8002513C2F200031A7040F22513C2F200034C
:1032E8001B78DBB2012B05D145F6C400C0F60100FE
:1032F80011F0DAF907F10807BD4680BD80B582B044
:1033080000AF43F2E470C2F201004FF480614FF065
:10331800000200F087F843F2E470C2F201004FF0B7
:1033280000014FF400724FF0020302F0E9FB03467C
:10333800FB71FB79002B07D0FB7945F6E400C0F65A
:103348000100194611F0B0F902F02CFD0346FB719B
:10335800FB79002B07D0FB7945F67000C0F6010019
:10336800194611F0A1F900BF00F0C6FD0346002B75
:10337800FAD1FB79002B2DD143F6E450C2F20100BB
:103388004FF000014FF400724FF0020302F032F8E0
:103398000346FB71FB79002B07D0FB7945F600103B
:1033A800C0F60100194611F07FF902F009F9034649
:1033B800FB71FB79002B07D0FB7945F6A800C0F616
:1033C8000100194611F070F900BF00F095FD0346A1
:1033D800002BFAD1FB79002B12D143F2E470C2F230
:1033E800010043F6E451C2F201014FF4806200F09B
:1033F8003DF803461A4640F22613C2F200031A703B
:1034080040F22613C2F200031B78DBB2012B05D170
:1034180045F61C10C0F6010011F046F907F108073F
:10342800BD4680BD80B487B000AFF860B9607A60EF
:103438004FF00003FB824FF00003FB820DE0FB8A94
:10344800FA68D318FA8AD1B27A68D2B28A18D2B294
:103458001A70FB8A03F10103FB82FA8ABB689A425D
:10346800EDD307F11C07BD4680BC704780B485B01A
:1034780000AFF860B9607A6010E0FB681A78BB6842
:103488001B789A4202D04FF0000315E0FB6803F165
:103498000103FB60BB6803F10103BB607B68002B81
:1034A8000CBF00230123DBB27A6802F1FF327A6095
:1034B800002BE2D14FF00103184607F11407BD466F
:1034C80080BC704780B483B000AF786039600EE08C
:1034D8007B681B78FF2B06D07B681B78002B02D0FB
:1034E8004FF0000311E07B6803F101037B603B6848
:1034F800002B0CBF00230123DBB23A6802F1FF3234
:103508003A60002BE4D14FF00103184607F10C078D
:10351800BD4680BC704700BF80B582B000AF00F0E8
:103528009BF800F06FFC0346FB7145F64010C0F6AF
:10353800010011F0B9F8FB79002B06D145F65810B7
:10354800C0F6010011F0B0F80DE045F66C10C0F6B9
:10355800010011F0A9F8FB7945F67C10C0F60100CE
:10356800194611F0A1F844F20043C2F2010393F89E
:10357800563045F68C10C0F60100194611F094F843
:1035880044F20043C2F20103D3E9122345F69C102A
:10359800C0F6010011F088F844F20043C2F20103BA
:1035A8001B6D45F6B010C0F60100194611F07CF805
:1035B80044F20043C2F2010393F82C30DBB245F623
:1035C800C410C0F60100194611F06EF844F2004329
:1035D800C2F20103B3F8543045F6D810C0F6010022
:1035E800194611F061F829E040F26403C2F20003C1
:1035F8001B68012B04D0012B0CD3022B14D01DE027
:10360800FFF7ECFD40F26403C2F200034FF0000242
:103618001A6013E0FFF76CFD40F26403C2F2000386
:103628004FF002021A6009E0FFF768FE40F26403F7
:10363800C2F200034FF003021A6000BFFB79002BAF
:1036480006D140F26403C2F200031B68032BCBD1FE
:1036580007F10807BD4680BD80B582B000AF4FF4C2
:1036680040700BF0F7FB4FF031033B714FF0000354
:103678007B714FF00003BB714FF00103FB7107F141
:10368800040318460BF0FAFB4FF03B033B714FF075
:1036980001037B7107F1040318460BF0EFFB07F1F8
:1036A8000807BD4680BD00BF80B500AF02F03AFFF5
:1036B80080BD00BF80B500AF02F0BCFF80BD00BF79
:1036C80080B584B000AF3B4618460DF077FF3B68E5
:1036D80045F6E410C0F60100194610F0E5FF7B68D6
:1036E80045F6F410C0F60100194610F0DDFFBB687E
:1036F80045F60020C0F60100194610F0D5FFFB681A
:1037080045F61020C0F60100194610F0CDFF07F16C
:103718001007BD4680BD00BF80B586B000AF786099
:1037280039604FF000037B614FF000033B614FF0BD
:103738000003FB813B681B787B734FF000037B61C0
:103748005FE04FF00A0010F0C7FF7B694FEA0312F1
:103758007B68D31845F62020C0F60100194610F002
:10376800A3FF4FF000033B6114E0FB893A68D318CC
:103778001B787B73FB8903F10103FB817B7B45F697
:103788002C20C0F60100194610F08EFF3B6903F1AA
:1037980001033B613B690F2BE7D945F63420C0F69E
:1037A800010010F081FFFB89A3F11003FB814FF0AA
:1037B80000033B6118E0FB893A68D3181B787B73D8
:1037C800FB8903F10103FB817B7B202B04D97B7BE5
:1037D800184610F081FF03E04FF02E0010F07CFF38
:1037E8003B6903F101033B613B690F2BE3D945F6C4
:1037F8003820C0F6010010F057FF7B6903F1010380
:103808007B617B691F2B9CD907F11807BD4680BDDA
:1038180080B5ADF5047D00AF07F1040318604FF0E3
:103828000003C7F80C3235E007F108031846D7F84B
:103838000C124FF400724FF0010301F0F5FC03463F
:1038480087F80B3297F80B32002B04D097F80B321D
:10385800184600F035F800BF00F04EFB0346002B79
:10386800FAD1D7F80C324FEA432207F10803104681
:103878001946FFF751FFD7F80C32D7F80C2202F19E
:103888000102C7F80C2245F63C20C0F60100194693
:1038980010F00AFF07F104031B68002B0CBF00237C
:1038A8000123DBB207F1040207F10401096801F101
:1038B800FF311160002BB7D107F50477BD4680BDF5
:1038C80080B5ACB000AF0346FB7145F6BC53C0F6FB
:1038D800010307F108011A464FF0A80308461146EC
:1038E8001A4610F0D0FEFA79FB794FEA830307F104
:1038F800B001CB1853F8A83C45F64C20C0F601009F
:1039080011461A4610F0D0FE07F1B007BD4680BD3B
:10391800B0B58CB000AF0346FB7145F62873C0F60E
:10392800010307F10C041D460FCD0FC40FCD0FC4C2
:103938002B682360FB79072B11D8FA79FB794FEABA
:10394800830307F13001CB1853F8243C45F6646033
:10395800C0F6010011461A4610F0A6FE09E0FA79F1
:10396800FB6A45F66460C0F6010011461A4610F07D
:103978009BFE07F13007BD46B0BD00BFF0B58BB068
:1039880000AF46F2BC13C0F6010307F104069E46D9
:10399800BEE80F000FC69EE80F0086E80F0045F648
:1039A8004C70C0F6010010F07FFE44F20040C2F2F5
:1039B800010000F003FE034687F8273097F8273008
:1039C800002B0DD045F65C70C0F6010010F06CFEBF
:1039D80097F827301846FFF773FF97F8273003E169
:1039E80097F82730002B40F0FD8000F0A3FA03463B
:1039F8001846FFF78DFF44F20043C2F201031B6D26
:103A080045F68C70C0F60100194610F04DFE44F2E0
:103A18000043C2F20103D3E9122345F6A070C0F6B1
:103A2800010010F041FE44F20043C2F20103D3E961
:103A380012234FEA03314FEA12540C434FEA13554D
:103A4800234645F6B870C0F60100194610F02CFE62
:103A580044F20043C2F2010393F856304FEA83035D
:103A680007F12802D31853F8243C45F6C470C0F671
:103A78000100194610F018FE44F20043C2F2010397
:103A8800B3F8543045F6D070C0F60100194610F06E
:103A98000BFE44F20043C2F201035B79DBB245F648
:103AA800DC70C0F60100194610F0FEFD44F2004338
:103AB800C2F201031B6945F6F870C0F60100194609
:103AC80010F0F2FD44F20043C2F201031B7EDBB2A8
:103AD80046F21000C0F60100194610F0E5FD44F268
:103AE8000043C2F201031B7ADBB246F22C00C0F697
:103AF8000100194610F0D8FD44F20043C2F2010358
:103B0800DB7FDBB246F24400C0F60100194610F034
:103B1800CBFD46F26000C0F6010010F0C5FD44F28E
:103B28000043C2F2010393F82C30DBB246F268007E
:103B3800C0F60100194610F0B7FD44F20043C2F286
:103B480001031B6B46F28000C0F60100194610F015
:103B5800ABFD44F20043C2F2010393F83430DBB208
:103B680046F29400C0F60100194610F09DFD44F29B
:103B78000043C2F2010393F83530DBB246F2A800E5
:103B8800C0F60100194610F08FFD44F20043C2F25E
:103B980001039B6B46F2B800C0F60100194610F00D
:103BA80083FD44F20043C2F20103DB8F9BB246F26D
:103BB800C800C0F60100194610F076FD44F2004333
:103BC800C2F2010393F84030DBB246F2E000C0F6DF
:103BD8000100194610F068FD00F0ACF903461846DC
:103BE800FFF796FE4FF00003184607F12C07BD4675
:103BF800F0BD00BF80B586B000AF46F2DC10C0F65D
:103C0800010010F051FD07F10403184601F070F8A7
:103C18000346FB75FB7D002B0BD046F2EC10C0F67B
:103C2800010010F041FDFB7D1846FFF749FEFB7DC2
:103C38005DE0FB7D002B58D13B79DBB246F22020BA
:103C4800C0F60100194610F02FFD7B79DBB246F271
:103C58003820C0F60100194610F026FDFB889BB2FB
:103C680046F25020C0F60100194610F01DFDBB6851
:103C780046F26820C0F60100194610F015FD3B7B9E
:103C8800DBB246F28820C0F60100194610F00CFDA0
:103C98007B7BDBB246F29C20C0F60100194610F08F
:103CA80003FDBB7BDBB246F2B820C0F60100194623
:103CB80010F0FAFC3B8A9BB246F2C820C0F601001D
:103CC800194610F0F1FCBB7CDBB246F2DC20C0F6F2
:103CD8000100194610F0E8FCFB7CDBB246F2F42048
:103CE800C0F60100194610F0DFFC4FF0000318463B
:103CF80007F11807BD4680BD80B582B000AF46F217
:103D08000C30C0F6010010F0CFFCFFF7D9FC40F2F0
:103D18006803C2F200031B6846F22430C0F60100B3
:103D2800194610F0C1FC40F26803C2F200031A6899
:103D380048F68903C8F68803A3FB02134FEA9313D6
:103D480046F25C30C0F60100194610F0ADFC40F2B6
:103D58006803C2F200031B684FEA930346F29830E7
:103D6800C0F60100194610F09FFC46F2DC30C0F6A0
:103D7800010010F099FC00F045F80346FB71FB794F
:103D8800002B09D046F2EC30C0F6010010F08CFC94
:103D9800FB791846FFF794FDFFF7F0FDFFF72AFFC0
:103DA80046F21840C0F6010010F07EFC44F20040D4
:103DB800C2F2010000F002FC0346FB71FB79002B04
:103DC80009D045F65C70C0F6010010F06DFCFB7977
:103DD8001846FFF775FD44F20043C2F201031B6960
:103DE80046F23440C0F60100194610F05DFC07F1B8
:103DF8000807BD4680BD00BF80B500AF03F068FA74
:103E080080BD00BF80B582B000AF4FF00003FB71EA
:103E180003F0D8FA0CF03AFC00F0C0F80346FB7146
:103E2800FB79DBB2002B02D0FB79DBB25FE000F05C
:103E38008BFA0346FB71FB79DBB2002B02D0FB79CE
:103E4800DBB254E044F25843C2F201034FF00202DD
:103E58001A7544F25843C2F201034FF000021A6087
:103E680044F25843C2F201034FF000025A6044F290
:103E78005843C2F201034FF000029A6044F25843DB
:103E8800C2F201034FF00002DA6044F25843C2F272
:103E980001034FF000021A6144F25840C2F20100D7
:103EA8000CF004FC44F20040C2F2010000F086FB72
:103EB8000346FB71FB79DBB2002B0CD144F20043C3
:103EC800C2F20103B3F854304FEA0343184601F035
:103ED80091F80346FB71FB79DBB2002B05D14FF457
:103EE800006000F0D9FF0346FB71FB79DBB218468E
:103EF80007F10807BD4680BD80B582B000AF4FF01E
:103F08000403FB7100F016F80346FB71FB79042BE0
:103F180002D14FF0000307E0FB79FF2B02D14FF0ED
:103F2800020301E04FF00103184607F10807BD46F8
:103F380080BD00BF80B582B000AF4FF000037B604A
:103F480000F01EF80346012B12D107F104031846AE
:103F580002F018F90346002B02D04FF0FF0309E0E6
:103F68007B684FEA5323DBB203F00F03DBB201E0B7
:103F78004FF0FF03184607F10807BD4680BD00BF94
:103F880080B483B000AF4FF00103FB71FB79DBB263
:103F9800184607F10C07BD4680BC704780B586B04F
:103FA80000AF4FF00003FB714FF000037B614FF04F
:103FB80000033B614FF00003FB604FF00003BB6060
:103FC80044F25843C2F201034FF076021A7544F2E4
:103FD8005843C2F201034FF000021A6044F25843FA
:103FE800C2F201034FF000025A6044F25843C2F291
:103FF80001034FF000029A6044F25843C2F20103F1
:104008004FF00002DA6044F25843C2F201034FF065
:1040180000021A6144F25840C2F201000CF046FB5B
:104028004FF003000CF0A8FB4FF001000CF094FBDC
:1040380044F2E833C2F201034FF000021A6044F27E
:10404800E833C2F201034FF000025A6044F2E83349
:10405800C2F201034FF000029A6044F2E833C2F260
:1040680001034FF00002DA6044F2E833C2F20103C0
:104078004FF480621A6144F2E830C2F201000CF099
:1040880099FB02F0F3FA0346FB71FB79DBB2002BD4
:1040980002D0FB79DBB242E144F2E833C2F2010319
:1040A8004FF4D5721A6044F2E833C2F201034FF0BC
:1040B80008025A6044F2E833C2F201034FF04002AA
:1040C8009A6044F2E833C2F201034FF00002DA606A
:1040D80044F2E833C2F201034FF480621A6144F2F9
:1040E800E830C2F201000CF065FB02F0E9FA034681
:1040F800FB71FB79DBB2002B0AD140F22813C2F224
:1041080000034FF001021A604FF08043BB602EE0BD
:1041180044F2E833C2F201034FF000021A6044F29D
:10412800E833C2F201034FF037025A6044F2E83331
:10413800C2F201034FF040029A6044F2E833C2F23F
:1041480001034FF00002DA6044F2E833C2F20103DF
:104158004FF480621A6144F2E830C2F201000CF0B8
:1041680029FB4FF0370002F0F3FA0346FB7144F2E3
:10417800E833C2F201034FF000021A6044F2E83358
:10418800C2F201034FF037025A6044F2E833C2F238
:1041980001034FF040029A6044F2E833C2F201038F
:1041A8004FF00002DA6044F2E833C2F201034FF440
:1041B80080621A6144F2E830C2F201000CF0FAFAA7
:1041C8004FF0370002F0C4FA0346FB71FB79DBB20B
:1041D800002B40F0A2807EE044F2E833C2F20103F3
:1041E8004FF000021A6044F2E833C2F201034FF0C4
:1041F80037025A6044F2E833C2F201034FF040023A
:104208009A6044F2E833C2F201034FF00002DA6028
:1042180044F2E833C2F201034FF480621A6144F2B7
:10422800E830C2F201000CF0C5FA4FF0370002F096
:104238008FFA0346FB71FB79DBB2002B02D0FB79C6
:10424800DBB26CE0BB6843F0004242F4801244F2F7
:10425800E833C2F201031A6044F2E833C2F2010300
:104268004FF029025A6044F2E833C2F201034FF0DA
:1042780040029A6044F2E833C2F201034FF00002B0
:10428800DA6044F2E833C2F201034FF480621A6143
:1042980044F2E830C2F201000CF08CFA02F048FB5C
:1042A8000346FB71FB79DBB2002B02D0FB79DBB252
:1042B80035E04FF000000CF0DBFA78617B694FEADB
:1042C800D373012B14BF00230123DBB2FB603B69CE
:1042D80003F101033B61FB68002B05D13A694FF6F6
:1042E800FE739A427FF678AF3A694FF6FE739A42A8
:1042F80005D94FF01B03FB71FB79DBB20FE07B693B
:1043080003F080437B617B69002B06D040F22813C1
:10431800C2F200034FF002021A60FB79DBB21846C2
:1043280007F11807BD4680BD80B582B000AF4FF0D9
:104338000003FB714FF000000CF01EFAFB791846E1
:1043480007F10807BD4680BD80B582B000AF4FF0C9
:104358000003FB714FF00103BB800CF01DFA03460C
:10436800002B04D14FF02503FB71FB7921E140F2CA
:104378002813C2F200031B68042B59D044F2E83317
:10438800C2F201034FF000021A6044F2E833C2F2AD
:1043980001034FF002025A6044F2E833C2F201030B
:1043A8004FF0C0029A6044F2E833C2F201034FF0C2
:1043B8000002DA6044F2E833C2F201034FF480628B
:1043C8001A6144F2E830C2F201000CF0F3F902F08D
:1043D800DFFA0346FB71FB79002B01D0FB79E8E09B
:1043E8004FF000000CF044FA024640F23C13C2F2CF
:1043F80000031A604FF004000CF03AFA024640F24B
:104408003C13C2F200035A604FF008000CF030FA77
:10441800024640F23C13C2F200039A604FF00C00CF
:104428000CF026FA024640F23C13C2F20003DA60AE
:1044380040F22813C2F200031B68002B14D040F28C
:104448002813C2F200031B68012B0DD040F2281379
:10445800C2F200031B68062B06D040F22813C2F2F2
:1044680000031B68022B36D144F2E833C2F2010381
:104478004FF000021A6044F2E833C2F201034FF031
:1044880003025A6044F2E833C2F201034FF04002DB
:104498009A6044F2E833C2F201034FF00002DA6096
:1044A80044F2E833C2F201034FF480621A6144F225
:1044B800E830C2F201000CF07DF907F104034FF077
:1044C8000300194602F0A2FA0346FB71FB79002BA0
:1044D80001D0FB796DE040F22813C2F200031B689B
:1044E800042B62D0BB881A4640F24C13C2F2000378
:1044F8001A60BB884FEA03431A4644F2E833C2F213
:1045080001031A6044F2E833C2F201034FF00902D2
:104518005A6044F2E833C2F201034FF0C0029A60D5
:1045280044F2E833C2F201034FF00002DA6044F2C9
:10453800E833C2F201034FF480621A6144F2E830B2
:10454800C2F201000CF036F902F022FA0346FB71C0
:10455800FB79002B01D0FB792BE04FF000000CF029
:1045680087F9024640F22C13C2F200031A604FF09A
:1045780004000CF07DF9024640F22C13C2F200034D
:104588005A604FF008000CF073F9024640F22C1301
:10459800C2F200039A604FF00C000CF069F9024671
:1045A80040F22C13C2F20003DA604FF00003FB71F3
:1045B800FB79184607F10807BD4680BDB0B485B041
:1045C80000AF78604FF00001B9734FF00001F97344
:1045D80040F22811C2F200010968C8B2796881F86E
:1045E800560040F24C11C2F20001096888B279689D
:1045F800A1F8540040F22C11C2F2000109684FEAF8
:104608001161F973F97B4FEA9111C8B279680870A2
:10461800F97B01F03C014FEAA101C8B27968487002
:10462800F97B01F00301C8B27968887040F22C1157
:10463800C2F20001096801F47F014FEA1141F973E0
:104648007968F87BC87040F22C11C2F20001096841
:1046580001F47F414FEA1121F9737968F87B0871F9
:1046680040F22C11C2F200010968F9737968F87BED
:10467800487140F22C11C2F2000149684FEA1161F9
:10468800F973F97B89B24FEA011188B27968C88059
:1046980040F22C11C2F20001496801F47F014FEA8F
:1046A8001141F9737968C98888B2F97B4FEA111109
:1046B800C9B2014388B27968C880F97B01F00F015B
:1046C800C8B27968087240F22C11C2F20001496838
:1046D80001F47F414FEA1121F973F97B4FEAD111B7
:1046E800C8B279684872F97B01F040014FEAA1111C
:1046F800C8B279688872F97B01F020014FEA61112C
:10470800C8B27968C872F97B01F010014FEA21112B
:10471800C8B27968087379684FF00000487340F2AE
:104728002811C2F200010968002907D040F22811B7
:10473800C2F200010968012940F0AF80FB7B03F059
:1047480003034FEA83231A467B681A6140F22C134D
:10475800C2F200035B68FB737B681A69FB7B4FEA54
:1047680083031A437B681A6140F22C13C2F20003D8
:104778009B684FEA1363FB737B681A69FB7B4FEAFC
:104788009313DBB21A437B681A61FB7B03F038038F
:104798004FEAE303DAB27B681A75FB7B03F0070381
:1047A800DAB27B685A7540F22C13C2F200039B6898
:1047B80003F47F034FEA1343FB73FB7B4FEA531366
:1047C800DAB27B689A75FB7B03F01C034FEAA303FC
:1047D800DAB27B68DA75FB7B03F00303DBB24FEADE
:1047E8004303DAB27B681A7640F22C13C2F2000354
:1047F8009B6803F47F434FEA1323FB737B681B7E9C
:10480800DAB2FB7B4FEAD313DBB21343DAB27B682D
:104818001A767B681B6903F101010A464FF0000311
:104828007968C1E912237B68D3E912017B681B7E92
:10483800DBB203F102034FF0010202FA03F422464D
:104848004FEAE27302FB01F500FB03F42C19A0FB0D
:104858000223E1180B467968C1E912237B681B7AA9
:10486800DBB24FF0010202FA03F31A467B681A65BD
:104878007B68D3E912017B681C6D22464FF0000368
:1048880002FB01F500FB03F42C19A0FB0223E1183D
:104898000B467968C1E9122353E040F22811C2F2AD
:1048A8000001096802294CD140F22C11C2F2000122
:1048B8004968F973F97B01F03F014FEA0141084665
:1048C8007968086140F22C11C2F2000189684FEA48
:1048D8001161F97379680869F97B4FEA0121084386
:1048E8007968086140F22C11C2F20001896801F46C
:1048F8007F014FEA1141F97379680869F97B084328
:104908007968086140F22C11C2F20001896801F44B
:104918007F414FEA1121F9737968096901F10104AE
:1049280020464FF000014FEA50344FEAC143234379
:104938004FEAC0427968C1E912237B684FF40072DC
:104948001A65FB7B03F040034FEAA313DAB27B68D6
:104958005A76FB7B03F03F03DBB24FEA4303DAB23C
:104968007B689A7640F22C13C2F200039B68FB73B3
:104978007B689B7EDAB2FB7B4FEAD313DBB213432F
:10498800DAB27B689A76FB7B03F07F03DAB27B6846
:10499800DA7640F22C13C2F20003DB684FEA1363A5
:1049A800FB73FB7B4FEAD313DAB27B681A77FB7B86
:1049B80003F060034FEA6313DAB27B685A77FB7B34
:1049C80003F01C034FEAA303DAB27B689A77FB7BF8
:1049D80003F00303DBB24FEA8303DAB27B68DA77CA
:1049E80040F22C13C2F20003DB6803F47F034FEAA2
:1049F8001343FB737B68DB7FDAB2FB7B4FEA9313CD
:104A0800DBB21343DAB27B68DA77FB7B03F020036F
:104A18004FEA6313DAB27B6883F820207B684FF093
:104A2800000283F82120FB7B03F00103DAB27B68E4
:104A380083F8222040F22C13C2F20003DB6803F44F
:104A48007F434FEA1323FB73FB7B4FEAD313DAB29E
:104A58007B6883F82320FB7B03F040034FEAA31312
:104A6800DAB27B6883F82420FB7B03F020034FEA4B
:104A78006313DAB27B6883F82520FB7B03F010030D
:104A88004FEA2313DAB27B6883F82620FB7B03F016
:104A98000C034FEAA303DAB27B6883F82720FB7B79
:104AA80003F00303DAB27B6883F8282040F22C1362
:104AB800C2F20003DB68FB73FB7B4FEA5303DAB2F5
:104AC8007B6883F829207B684FF0010283F82A204D
:104AD80040F23C13C2F200031B684FEA1363FB73F6
:104AE8007B68FA7B83F82C2040F23C13C2F2000367
:104AF8001B6803F47F034FEA1343FB73FB7B9BB2F2
:104B08004FEA03239AB27B68DA8540F23C13C2F27B
:104B180000031B6803F47F434FEA1323FB737B688E
:104B2800DB8D9AB2FB7B9BB213439AB27B68DA8522
:104B380040F23C13C2F200031B68FB73FB7B4FEA95
:104B480003631A467B681A6340F23C13C2F20003FF
:104B58005B684FEA1363FB737B681A6BFB7B4FEA56
:104B680003431A437B681A6340F23C13C2F2000302
:104B78005B6803F47F034FEA1343FB737B681A6B8C
:104B8800FB7B4FEA03231A437B681A6340F23C130A
:104B9800C2F200035B6803F47F434FEA1323FB73FD
:104BA8007B681A6BFB7B1A437B681A6340F23C13E1
:104BB800C2F200035B68FB737B68FA7B83F83420DE
:104BC80040F23C13C2F200039B684FEA1363FB7385
:104BD8007B68FA7B83F8352040F23C13C2F200036D
:104BE8009B6803F47F034FEA1343FB73FB7B4FEA95
:104BF80003631A467B689A6340F23C13C2F20003CF
:104C08009B6803F47F434FEA1323FB737B689A6B1B
:104C1800FB7B4FEA03431A437B689A6340F23C13D9
:104C2800C2F200039B68FB737B689A6BFB7B4FEABD
:104C380003231A437B689A6340F23C13C2F20003D1
:104C4800DB684FEA1363FB737B689A6BFB7B1A4341
:104C58007B689A6340F23C13C2F20003DB6803F4FA
:104C68007F034FEA1343FB737B6893F83C30DAB257
:104C7800FB7B4FEA1313DBB21343DAB27B6883F88A
:104C88003C20FB7B9BB203F00F039BB24FEA03234C
:104C98009AB27B68DA8740F23C13C2F20003DB6801
:104CA80003F47F434FEA1323FB737B68DB8F9AB2CD
:104CB800FB7B9BB213439AB27B68DA8740F23C13C2
:104CC800C2F20003DB68FB73FB7B4FEA5303DAB2E3
:104CD8007B6883F840207B684FF0010283F841200D
:104CE800BB7B184607F11407BD46B0BC704700BF30
:104CF80080B584B000AF78604FF00003FB734FF0CD
:104D08000003BB7340F25010C2F2000001F090FAA9
:104D18000346FB73FB7B002B01D0FB7BB7E040F223
:104D28005013C2F200031B784FEA9313BB737B68DE
:104D3800BA7B1A7040F25013C2F200031B7803F0DA
:104D480020034FEA6313BB737B68BA7B5A7040F247
:104D58005013C2F200039B78BB73BB7B9BB24FEA34
:104D680003239AB27B685A8040F25013C2F20003C0
:104D7800DB78BB737B685B889AB2BB7B9BB21343BF
:104D88009AB27B685A8040F25013C2F200031B7932
:104D9800BB73BB7B4FEA03631A467B685A6040F2D9
:104DA8005013C2F200035B79BB737B685A68BB7B04
:104DB8004FEA03431A437B685A6040F25013C2F229
:104DC80000039B79BB737B685A68BB7B4FEA03235C
:104DD8001A437B685A6040F25013C2F20003DB7931
:104DE800BB737B685A68BB7B1A437B685A6040F286
:104DF8005013C2F200031B7ABB737B68BA7B1A722A
:104E080040F25013C2F200035B7ABB737B68BA7B33
:104E18005A7240F25013C2F200039B7A4FEA1313FE
:104E2800BB737B68BA7B9A7240F25013C2F20003DC
:104E3800DB7ABB73BB7B9BB24FEA03239AB27B68D6
:104E48009A8140F25013C2F200031B7BBB737B684C
:104E58009B899AB2BB7B9BB213439AB27B689A81B7
:104E680040F25013C2F200035B7B4FEA9303BB731B
:104E78007B68BA7B9A7340F25013C2F200035B7BE3
:104E880003F00303BB737B68BA7BDA73FB7B1846BA
:104E980007F11007BD4680BD80B584B000AF7860CB
:104EA8004FF00003FB7340F22813C2F200031B68A3
:104EB800032B04D14FF02703FB73FB7B95E040F2F3
:104EC8002813C2F200031B68002B0DD040F22813F0
:104ED800C2F200031B68012B06D040F22813C2F26D
:104EE80000031B68022B7FD17B68B3F5805F04D178
:104EF8004FF02703FB73FB7B77E07B68B3F5006F0C
:104F080039D14FF0010001F0F7FD0346FB73FB7B3D
:104F1800002B69D144F25843C2F201034FF0020258
:104F28001A7544F25843C2F201034FF000021A60A6
:104F380044F25843C2F201034FF000025A6044F2AF
:104F48005843C2F201034FF000029A6044F25843FA
:104F5800C2F201034FF40062DA6044F25843C2F22D
:104F680001034FF000021A6144F25840C2F20100F6
:104F78000BF09CFB38E04FF0000001F0BDFD03464C
:104F8800FB73FB7B002B2FD144F25843C2F2010381
:104F98004FF002021A7544F25843C2F201034FF06F
:104FA80000021A6044F25843C2F201034FF00002B3
:104FB8005A6044F25843C2F201034FF000029A606B
:104FC80044F25843C2F201034FF00002DA6044F29F
:104FD8005843C2F201034FF000021A6144F25840EC
:104FE800C2F201000BF062FBFB7B184607F11007C9
:104FF800BD4680BD80B584B000AF78604FF0000337
:10500800FB7344F2E833C2F201037A681A6044F28F
:10501800E833C2F201034FF007025A6044F2E83362
:10502800C2F201034FF040029A6044F2E833C2F240
:1050380001034FF00002DA6044F2E833C2F20103E0
:105048004FF480621A6144F2E830C2F201000BF0BA
:10505800B1FB4FF0070001F07BFB0346FB73FB7BC2
:10506800184607F11007BD4680BD00BF80B586B061
:1050780000AFF860B9601346FB804FF00003FB7582
:1050880040F26413C2F200034FF000021A7040F2BB
:105098006813C2F200034FF000021A6040F2601376
:1050A800C2F200034FF000021A604FF43053C4F20A
:1050B80001034FF00002DA6240F22813C2F2000343
:1050C8001B68022B06D14FF40073FB80BB684FEAC4
:1050D8005323BB60FA8844F2E833C2F201031A6032
:1050E80044F2E833C2F201034FF010025A6044F26E
:1050F800E833C2F201034FF040029A6044F2E83309
:10510800C2F201034FF00002DA6044F2E833C2F25F
:1051180001034FF480621A6144F2E830C2F20100E0
:105128000BF048FB4FF0100001F012FB0346FB7533
:10513800FB7D002B01D0FB7D71E044F27043C2F28D
:1051480001034FF0FF321A60FA8844F27043C2F24A
:1051580001035A6044F27043C2F201034FF0900217
:105168009A6044F27043C2F201034FF00202DA601F
:1051780044F27043C2F201034FF000021A6144F294
:105188007043C2F201034FF001025A6144F27040C9
:10519800C2F201000BF082FB44F2E833C2F20103D1
:1051A800BA681A6044F2E833C2F201034FF0110200
:1051B8005A6044F2E833C2F201034FF040029A60A9
:1051C80044F2E833C2F201034FF00002DA6044F21D
:1051D800E833C2F201034FF480621A6144F2E83006
:1051E800C2F201000BF0E6FA4FF0110001F0B0FA3C
:1051F8000346FB75FB7D002B01D0FB7D0FE040F2E1
:105208002A304FF001010BF06FFC4FF001000BF05A
:105218005BFCFB88F868194602F0DAF9FB7D184652
:1052280007F11807BD4680BD80B586B000AFF860AD
:10523800B9603B601346FB804FF00003FB7540F2FA
:105248006413C2F200034FF000021A7040F26813B0
:10525800C2F200034FF000021A6040F26013C2F27B
:1052680000034FF001021A604FF43053C4F20103F7
:105278004FF00002DA6240F22813C2F200031B6802
:10528800022B06D14FF40073FB80BB684FEA53230F
:10529800BB60FA8844F2E833C2F201031A6044F2B0
:1052A800E833C2F201034FF010025A6044F2E833C7
:1052B800C2F201034FF040029A6044F2E833C2F2AE
:1052C80001034FF00002DA6044F2E833C2F201034E
:1052D8004FF480621A6144F2E830C2F201000BF028
:1052E80069FA4FF0100001F033FA0346FB75FB7DB5
:1052F800002B01D0FB7D77E044F27043C2F201033A
:105308004FF0FF321A60FB883A6802FB03F244F25E
:105318007043C2F201035A6044F27043C2F20103BF
:105328004FF090029A6044F27043C2F201034FF0CA
:105338000202DA6044F27043C2F201034FF0000245
:105348001A6144F27043C2F201034FF001025A613C
:1053580044F27040C2F201000BF0A0FA44F2E833C4
:10536800C2F20103BA681A6044F2E833C2F20103D8
:105378004FF012025A6044F2E833C2F201034FF0D0
:1053880040029A6044F2E833C2F201034FF000028F
:10539800DA6044F2E833C2F201034FF480621A6122
:1053A80044F2E830C2F201000BF004FA4FF01200A8
:1053B80001F0CEF90346FB75FB7D002B01D0FB7D88
:1053C80012E040F22A304FF001010BF08DFB4FF054
:1053D80001000BF079FBFB883A6802FB03F3F868DD
:1053E800194602F0F5F8FB7D184607F11807BD4687
:1053F80080BD00BF80B586B000AFF860B9607A6044
:105408003B604FF00003FB7540F26413C2F20003E7
:105418004FF000021A7040F26813C2F200034FF016
:1054280000021A6040F26013C2F200034FF001025A
:105438001A604FF43053C4F201034FF00002DA62ED
:1054480040F22813C2F200031B68022B03D14FF469
:1054580000737B6004E0BB687A6802FB03F3BB60FF
:1054680044F2E833C2F201037A681A6044F2E8337E
:10547800C2F201034FF010025A6044F2E833C2F25C
:1054880001034FF040029A6044F2E833C2F201038C
:105498004FF00002DA6044F2E833C2F201034FF43D
:1054A80080621A6144F2E830C2F201000BF082F91E
:1054B8004FF0100001F04CF90346FB75FB7D002B03
:1054C80001D0FB7D77E044F27043C2F201034FF054
:1054D800FF321A603B687A6802FB03F244F27043B9
:1054E800C2F201035A6044F27043C2F201034FF062
:1054F80090029A6044F27043C2F201034FF0020234
:10550800DA6044F27043C2F201034FF000021A61FC
:1055180044F27043C2F201034FF001025A6144F2AF
:105528007040C2F201000BF0B9F944F2E833C2F25C
:105538000103BA681A6044F2E833C2F201034FF07B
:1055480012025A6044F2E833C2F201034FF04002FB
:105558009A6044F2E833C2F201034FF00002DA60C5
:1055680044F2E833C2F201034FF480621A6144F254
:10557800E830C2F201000BF01DF94FF0120001F003
:10558800E7F80346FB75FB7D002B01D0FB7D12E09D
:1055980040F22A304FF001010BF0A6FA4FF001005B
:1055A8000BF092FA3B687A6802FB03F3F868194635
:1055B80002F00EF8FB7D184607F11807BD4680BDBE
:1055C80080B582B000AF4FF00003FB714FF0FF339E
:1055D8003B6003E03B6803F1FF333B6040F26C1330
:1055E800C2F200031B68002B11D140F26813C2F20B
:1055F80000031B68002B0AD140F26413C2F20003B7
:105608001B78DBB2002B02D13B68002BE2D140F2C1
:105618006C13C2F200034FF000021A604FF0FF3320
:105628003B6003E03B6803F1FF333B604FF43053CA
:10563800C4F201035B6B03F40053002B02D03B68F8
:10564800002BEFD140F26013C2F200031B68012B5C
:1056580003D100F02BFC0346FB713B68002B05D1FE
:10566800FB79002B02D14FF00403FB7140F2FF508D
:105678000BF082FA40F26413C2F200031B78DBB22B
:10568800002B06D040F26413C2F200031B78DBB291
:1056980000E0FB79184607F10807BD4680BD00BF4A
:1056A80080B586B000AFF860B9601346FB804FF054
:1056B8000003FB7540F26413C2F200034FF00002CE
:1056C8001A7040F26813C2F200034FF000021A6029
:1056D80040F26013C2F200034FF000021A604FF468
:1056E8003053C4F201034FF00002DA6240F228138B
:1056F800C2F200031B68022B06D14FF40073FB8033
:10570800BB684FEA5323BB60FA8844F2E833C2F21D
:1057180001031A6044F2E833C2F201034FF01002A9
:105728005A6044F2E833C2F201034FF040029A6033
:1057380044F2E833C2F201034FF00002DA6044F2A7
:10574800E833C2F201034FF480621A6144F2E83090
:10575800C2F201000BF02EF84FF0100000F0F8FF35
:105768000346FB75FB7D002B01D0FB7D71E044F205
:10577800E833C2F20103BA681A6044F2E833C2F2AD
:1057880001034FF018025A6044F2E833C2F20103F1
:105798004FF040029A6044F2E833C2F201034FF03E
:1057A8000002DA6044F2E833C2F201034FF4806287
:1057B8001A6144F2E830C2F201000AF0FBFF4FF030
:1057C800180000F0C5FF0346FB75FB7D002B01D0D8
:1057D800FB7D3EE044F27043C2F201034FF0FF321A
:1057E8001A60FA8844F27043C2F201035A6044F224
:1057F8007043C2F201034FF090029A6044F2704382
:10580800C2F201034FF00002DA6044F27043C2F2C0
:1058180001034FF000021A6144F27043C2F201031F
:105828004FF001025A6144F27040C2F201000BF0DD
:1058380035F840F22A304FF001010BF055F9FB889A
:10584800F868194601F054FE4FF001000BF03CF9DE
:10585800FB7D184607F11807BD4680BD80B586B0A8
:1058680000AFF860B9603B601346FB804FF000035F
:10587800FB7540F26413C2F200034FF000021A7085
:1058880040F26813C2F200034FF000021A6040F2BF
:105898006013C2F200034FF001021A604FF4305354
:1058A800C4F201034FF00002DA6240F22813C2F298
:1058B80000031B68022B06D14FF40073FB80BB6802
:1058C8004FEA5323BB60FA8844F2E833C2F201037B
:1058D8001A6044F2E833C2F201034FF010025A6032
:1058E80044F2E833C2F201034FF040029A6044F2F6
:1058F800E833C2F201034FF00002DA6044F2E83301
:10590800C2F201034FF480621A6144F2E830C2F235
:1059180001000AF04FFF4FF0100000F019FF034696
:10592800FB75FB7D002B01D0FB7DE3E040F24C13BF
:10593800C2F200031B684FEA034244F2E833C2F2A2
:1059480001031A6044F2E833C2F201034FF0370250
:105958005A6044F2E833C2F201034FF040029A6001
:1059680044F2E833C2F201034FF00002DA6044F275
:10597800E833C2F201034FF480621A6144F2E8305E
:10598800C2F201000AF016FF4FF0370000F0E0FE07
:105998000346FB75FB7D002B01D0FB7DAAE044F29A
:1059A800E833C2F201033A681A6044F2E833C2F2FB
:1059B80001034FF017025A6044F2E833C2F20103C0
:1059C8004FF040029A6044F2E833C2F201034FF00C
:1059D8000002DA6044F2E833C2F201034FF4806255
:1059E8001A6144F2E830C2F201000AF0E3FE4FF017
:1059F800170000F0ADFE0346FB75FB7D002B01D0C0
:105A0800FB7D77E044F2E833C2F20103BA681A601A
:105A180044F2E833C2F201034FF019025A6044F22B
:105A2800E833C2F201034FF040029A6044F2E833CF
:105A3800C2F201034FF00002DA6044F2E833C2F226
:105A480001034FF480621A6144F2E830C2F20100A7
:105A58000AF0B0FE4FF0190000F07AFE0346FB751D
:105A6800FB7D002B01D0FB7D44E044F27043C2F281
:105A780001034FF0FF321A60FB883A6802FB03F219
:105A880044F27043C2F201035A6044F27043C2F216
:105A980001034FF090029A6044F27043C2F201038E
:105AA8004FF00002DA6044F27043C2F201034FF093
:105AB80000021A6144F27043C2F201034FF001027E
:105AC8005A6144F27040C2F201000AF0E7FE40F267
